{
  "abi": [
    {
      "inputs": [
        {
          "internalType": "address",
          "name": "_tokenAddress",
          "type": "address"
        },
        {
          "internalType": "uint8",
          "name": "_decimals",
          "type": "uint8"
        },
        {
          "internalType": "address",
          "name": "_arbiter",
          "type": "address"
        },
        {
          "internalType": "uint256",
          "name": "_arbiterFee",
          "type": "uint256"
        }
      ],
      "stateMutability": "nonpayable",
      "type": "constructor"
    },
    {
      "inputs": [],
      "name": "Marketplace__InWrongState",
      "type": "error"
    },
    {
      "inputs": [],
      "name": "Marketplace__InsufficientTokenBalance",
      "type": "error"
    },
    {
      "inputs": [],
      "name": "Marketplace__InsufficientTomBalance",
      "type": "error"
    },
    {
      "inputs": [],
      "name": "Marketplace__ItemSoldOut",
      "type": "error"
    },
    {
      "inputs": [],
      "name": "Marketplace__NotEligibleForRewards",
      "type": "error"
    },
    {
      "inputs": [
        {
          "internalType": "uint256",
          "name": "itemId",
          "type": "uint256"
        }
      ],
      "name": "Marketplace__NotListed",
      "type": "error"
    },
    {
      "inputs": [],
      "name": "Marketplace__NotOwner",
      "type": "error"
    },
    {
      "inputs": [],
      "name": "Marketplace__OnlyArbiter",
      "type": "error"
    },
    {
      "inputs": [],
      "name": "Marketplace__OnlyBuyer",
      "type": "error"
    },
    {
      "inputs": [],
      "name": "Marketplace__OnlyBuyerOrSeller",
      "type": "error"
    },
    {
      "inputs": [],
      "name": "Marketplace__OnlySeller",
      "type": "error"
    },
    {
      "inputs": [],
      "name": "Marketplace__PriceMustBeAboveZero",
      "type": "error"
    },
    {
      "anonymous": false,
      "inputs": [
        {
          "indexed": true,
          "internalType": "address",
          "name": "seller",
          "type": "address"
        },
        {
          "indexed": true,
          "internalType": "uint256",
          "name": "itemId",
          "type": "uint256"
        }
      ],
      "name": "ItemCanceled",
      "type": "event"
    },
    {
      "anonymous": false,
      "inputs": [
        {
          "indexed": true,
          "internalType": "address",
          "name": "seller",
          "type": "address"
        },
        {
          "indexed": true,
          "internalType": "uint256",
          "name": "itemId",
          "type": "uint256"
        },
        {
          "indexed": false,
          "internalType": "enum ItemType",
          "name": "itemType",
          "type": "uint8"
        },
        {
          "indexed": false,
          "internalType": "uint256",
          "name": "postingFee",
          "type": "uint256"
        }
      ],
      "name": "ItemListed",
      "type": "event"
    },
    {
      "anonymous": false,
      "inputs": [
        {
          "indexed": true,
          "internalType": "address",
          "name": "seller",
          "type": "address"
        },
        {
          "indexed": true,
          "internalType": "uint256",
          "name": "itemId",
          "type": "uint256"
        },
        {
          "indexed": false,
          "internalType": "uint256",
          "name": "postingFee",
          "type": "uint256"
        }
      ],
      "name": "ItemUpdated",
      "type": "event"
    },
    {
      "anonymous": false,
      "inputs": [
        {
          "indexed": true,
          "internalType": "address",
          "name": "seller",
          "type": "address"
        },
        {
          "indexed": true,
          "internalType": "address",
          "name": "buyer",
          "type": "address"
        },
        {
          "indexed": true,
          "internalType": "uint256",
          "name": "order",
          "type": "uint256"
        },
        {
          "indexed": false,
          "internalType": "uint256",
          "name": "itemId",
          "type": "uint256"
        },
        {
          "indexed": false,
          "internalType": "uint256",
          "name": "price",
          "type": "uint256"
        },
        {
          "indexed": false,
          "internalType": "uint256",
          "name": "quantity",
          "type": "uint256"
        },
        {
          "indexed": false,
          "internalType": "uint256",
          "name": "rewards",
          "type": "uint256"
        },
        {
          "indexed": false,
          "internalType": "enum OrderState",
          "name": "state",
          "type": "uint8"
        }
      ],
      "name": "OrderSent",
      "type": "event"
    },
    {
      "anonymous": false,
      "inputs": [
        {
          "indexed": true,
          "internalType": "address",
          "name": "previousOwner",
          "type": "address"
        },
        {
          "indexed": true,
          "internalType": "address",
          "name": "newOwner",
          "type": "address"
        }
      ],
      "name": "OwnershipTransferred",
      "type": "event"
    },
    {
      "anonymous": false,
      "inputs": [
        {
          "indexed": true,
          "internalType": "address",
          "name": "user",
          "type": "address"
        },
        {
          "indexed": false,
          "internalType": "uint256",
          "name": "rewards",
          "type": "uint256"
        }
      ],
      "name": "RewardsClaimed",
      "type": "event"
    },
    {
      "anonymous": false,
      "inputs": [
        {
          "indexed": true,
          "internalType": "address",
          "name": "buyer",
          "type": "address"
        },
        {
          "indexed": false,
          "internalType": "uint256",
          "name": "amount",
          "type": "uint256"
        }
      ],
      "name": "TokenBought",
      "type": "event"
    },
    {
      "inputs": [
        {
          "internalType": "address",
          "name": "_tomAddress",
          "type": "address"
        },
        {
          "internalType": "address",
          "name": "_escrowAddress",
          "type": "address"
        }
      ],
      "name": "activate",
      "outputs": [],
      "stateMutability": "nonpayable",
      "type": "function"
    },
    {
      "inputs": [
        {
          "internalType": "uint256",
          "name": "tokenAmount",
          "type": "uint256"
        }
      ],
      "name": "buyTOM",
      "outputs": [],
      "stateMutability": "nonpayable",
      "type": "function"
    },
    {
      "inputs": [
        {
          "internalType": "uint256",
          "name": "itemId",
          "type": "uint256"
        }
      ],
      "name": "cancelListing",
      "outputs": [],
      "stateMutability": "nonpayable",
      "type": "function"
    },
    {
      "inputs": [
        {
          "internalType": "uint256",
          "name": "orderId",
          "type": "uint256"
        }
      ],
      "name": "cancelOrder",
      "outputs": [],
      "stateMutability": "nonpayable",
      "type": "function"
    },
    {
      "inputs": [],
      "name": "claimRewards",
      "outputs": [],
      "stateMutability": "nonpayable",
      "type": "function"
    },
    {
      "inputs": [
        {
          "internalType": "uint256",
          "name": "orderId",
          "type": "uint256"
        }
      ],
      "name": "confirmDelivery",
      "outputs": [],
      "stateMutability": "nonpayable",
      "type": "function"
    },
    {
      "inputs": [
        {
          "internalType": "uint256",
          "name": "orderId",
          "type": "uint256"
        }
      ],
      "name": "deliverySent",
      "outputs": [],
      "stateMutability": "nonpayable",
      "type": "function"
    },
    {
      "inputs": [],
      "name": "getEscrowAddress",
      "outputs": [
        {
          "internalType": "address",
          "name": "",
          "type": "address"
        }
      ],
      "stateMutability": "view",
      "type": "function"
    },
    {
      "inputs": [
        {
          "internalType": "uint256",
          "name": "itemId",
          "type": "uint256"
        }
      ],
      "name": "getItemDescription",
      "outputs": [
        {
          "internalType": "string",
          "name": "",
          "type": "string"
        }
      ],
      "stateMutability": "view",
      "type": "function"
    },
    {
      "inputs": [
        {
          "internalType": "uint256",
          "name": "itemId",
          "type": "uint256"
        }
      ],
      "name": "getItemImage",
      "outputs": [
        {
          "internalType": "string",
          "name": "",
          "type": "string"
        }
      ],
      "stateMutability": "view",
      "type": "function"
    },
    {
      "inputs": [
        {
          "internalType": "uint256",
          "name": "itemId",
          "type": "uint256"
        }
      ],
      "name": "getItemName",
      "outputs": [
        {
          "internalType": "string",
          "name": "",
          "type": "string"
        }
      ],
      "stateMutability": "view",
      "type": "function"
    },
    {
      "inputs": [
        {
          "internalType": "uint256",
          "name": "itemId",
          "type": "uint256"
        }
      ],
      "name": "getItemNftAddress",
      "outputs": [
        {
          "internalType": "address",
          "name": "",
          "type": "address"
        }
      ],
      "stateMutability": "view",
      "type": "function"
    },
    {
      "inputs": [
        {
          "internalType": "uint256",
          "name": "itemId",
          "type": "uint256"
        }
      ],
      "name": "getItemNftId",
      "outputs": [
        {
          "internalType": "uint256",
          "name": "",
          "type": "uint256"
        }
      ],
      "stateMutability": "view",
      "type": "function"
    },
    {
      "inputs": [
        {
          "internalType": "uint256",
          "name": "itemId",
          "type": "uint256"
        }
      ],
      "name": "getItemPostingFee",
      "outputs": [
        {
          "internalType": "uint256",
          "name": "",
          "type": "uint256"
        }
      ],
      "stateMutability": "view",
      "type": "function"
    },
    {
      "inputs": [
        {
          "internalType": "uint256",
          "name": "itemId",
          "type": "uint256"
        }
      ],
      "name": "getItemQuantity",
      "outputs": [
        {
          "internalType": "uint256",
          "name": "",
          "type": "uint256"
        }
      ],
      "stateMutability": "view",
      "type": "function"
    },
    {
      "inputs": [
        {
          "internalType": "uint256",
          "name": "itemId",
          "type": "uint256"
        }
      ],
      "name": "getItemSeller",
      "outputs": [
        {
          "internalType": "address",
          "name": "",
          "type": "address"
        }
      ],
      "stateMutability": "view",
      "type": "function"
    },
    {
      "inputs": [
        {
          "internalType": "uint256",
          "name": "itemId",
          "type": "uint256"
        }
      ],
      "name": "getItemType",
      "outputs": [
        {
          "internalType": "enum ItemType",
          "name": "",
          "type": "uint8"
        }
      ],
      "stateMutability": "view",
      "type": "function"
    },
    {
      "inputs": [
        {
          "internalType": "uint256",
          "name": "orderId",
          "type": "uint256"
        }
      ],
      "name": "getOrderState",
      "outputs": [
        {
          "internalType": "uint256",
          "name": "",
          "type": "uint256"
        }
      ],
      "stateMutability": "view",
      "type": "function"
    },
    {
      "inputs": [
        {
          "internalType": "address",
          "name": "user",
          "type": "address"
        }
      ],
      "name": "getSpentAmount",
      "outputs": [
        {
          "internalType": "uint256",
          "name": "",
          "type": "uint256"
        }
      ],
      "stateMutability": "view",
      "type": "function"
    },
    {
      "inputs": [],
      "name": "getTokenAddress",
      "outputs": [
        {
          "internalType": "address",
          "name": "",
          "type": "address"
        }
      ],
      "stateMutability": "view",
      "type": "function"
    },
    {
      "inputs": [],
      "name": "getTomAddress",
      "outputs": [
        {
          "internalType": "address",
          "name": "",
          "type": "address"
        }
      ],
      "stateMutability": "view",
      "type": "function"
    },
    {
      "inputs": [
        {
          "internalType": "uint256",
          "name": "orderId",
          "type": "uint256"
        }
      ],
      "name": "initiateDispute",
      "outputs": [],
      "stateMutability": "nonpayable",
      "type": "function"
    },
    {
      "inputs": [
        {
          "internalType": "string",
          "name": "name",
          "type": "string"
        },
        {
          "internalType": "string",
          "name": "image",
          "type": "string"
        },
        {
          "internalType": "string",
          "name": "description",
          "type": "string"
        },
        {
          "internalType": "uint256",
          "name": "price",
          "type": "uint256"
        },
        {
          "internalType": "uint256",
          "name": "quantity",
          "type": "uint256"
        },
        {
          "internalType": "enum ItemType",
          "name": "itemType",
          "type": "uint8"
        },
        {
          "internalType": "address",
          "name": "nftContract",
          "type": "address"
        },
        {
          "internalType": "uint256",
          "name": "nftTokenId",
          "type": "uint256"
        }
      ],
      "name": "listItem",
      "outputs": [],
      "stateMutability": "nonpayable",
      "type": "function"
    },
    {
      "inputs": [
        {
          "internalType": "uint256[]",
          "name": "itemId",
          "type": "uint256[]"
        },
        {
          "internalType": "uint256[]",
          "name": "quantity",
          "type": "uint256[]"
        }
      ],
      "name": "orderCart",
      "outputs": [
        {
          "internalType": "uint256[]",
          "name": "ids",
          "type": "uint256[]"
        }
      ],
      "stateMutability": "nonpayable",
      "type": "function"
    },
    {
      "inputs": [
        {
          "internalType": "uint256",
          "name": "orderId",
          "type": "uint256"
        }
      ],
      "name": "orderStates",
      "outputs": [
        {
          "internalType": "enum OrderState",
          "name": "",
          "type": "uint8"
        }
      ],
      "stateMutability": "view",
      "type": "function"
    },
    {
      "inputs": [],
      "name": "owner",
      "outputs": [
        {
          "internalType": "address",
          "name": "",
          "type": "address"
        }
      ],
      "stateMutability": "view",
      "type": "function"
    },
    {
      "inputs": [],
      "name": "renounceOwnership",
      "outputs": [],
      "stateMutability": "nonpayable",
      "type": "function"
    },
    {
      "inputs": [
        {
          "internalType": "uint256",
          "name": "orderId",
          "type": "uint256"
        },
        {
          "internalType": "uint256",
          "name": "buyerAward",
          "type": "uint256"
        },
        {
          "internalType": "uint256",
          "name": "quantityOfItemsEffectivelyReceived",
          "type": "uint256"
        }
      ],
      "name": "resolveDispute",
      "outputs": [],
      "stateMutability": "nonpayable",
      "type": "function"
    },
    {
      "inputs": [
        {
          "internalType": "address",
          "name": "newOwner",
          "type": "address"
        }
      ],
      "name": "transferOwnership",
      "outputs": [],
      "stateMutability": "nonpayable",
      "type": "function"
    },
    {
      "inputs": [
        {
          "internalType": "uint256",
          "name": "itemId",
          "type": "uint256"
        },
        {
          "internalType": "string",
          "name": "name",
          "type": "string"
        },
        {
          "internalType": "string",
          "name": "image",
          "type": "string"
        },
        {
          "internalType": "string",
          "name": "description",
          "type": "string"
        },
        {
          "internalType": "uint256",
          "name": "price",
          "type": "uint256"
        },
        {
          "internalType": "uint256",
          "name": "quantity",
          "type": "uint256"
        }
      ],
      "name": "updateItem",
      "outputs": [],
      "stateMutability": "nonpayable",
      "type": "function"
    },
    {
      "inputs": [
        {
          "internalType": "address",
          "name": "user",
          "type": "address"
        }
      ],
      "name": "userTotalRewards",
      "outputs": [
        {
          "internalType": "uint256",
          "name": "rewards",
          "type": "uint256"
        }
      ],
      "stateMutability": "view",
      "type": "function"
    }
  ],
  "bytecode": {
    "object": "0x60e06040523480156200001157600080fd5b5060405162003a9638038062003a968339810160408190526200003491620000e4565b6200003f3362000077565b60018055600480546001600160a01b0319166001600160a01b0395861617905560ff9290921660805290911660a05260c0526200013d565b600080546001600160a01b038381166001600160a01b0319831681178455604051919092169283917f8be0079c531659141344cd1fd0a4f28419497f9722a3daafe3b4186f6b6457e09190a35050565b80516001600160a01b0381168114620000df57600080fd5b919050565b60008060008060808587031215620000fb57600080fd5b6200010685620000c7565b9350602085015160ff811681146200011d57600080fd5b92506200012d60408601620000c7565b6060959095015193969295505050565b60805160a05160c05161391b6200017b6000396000611021015260008181610f4e0152610ff90152600081816109500152612554015261391b6000f3fe608060405234801561001057600080fd5b50600436106101e55760003560e01c8063866641241161010f578063c19a4ef5116100a2578063f2fde38b11610071578063f2fde38b146104cd578063f6a3f3cf146104e0578063f75b59f414610500578063fd84cb971461051357600080fd5b8063c19a4ef51461043d578063c465a85914610477578063d9561a91146104a7578063dad0932b146104ba57600080fd5b8063a917f66f116100de578063a917f66f146103bb578063ab0c0c6a146103e7578063bafc47db1461040a578063c02619c41461042a57600080fd5b806386664124146103665780638da5cb5b146103775780639555c4db14610388578063a225833c1461039b57600080fd5b80634e10efbd11610187578063715018a611610156578063715018a61461031557806371635c031461031d5780637b3fb20f14610330578063810bd6af1461035357600080fd5b80634e10efbd1461027b578063514fcac7146102b25780636bd807d1146102c55780636f5528c0146102f257600080fd5b8063372500ab116101c3578063372500ab1461023a578063399bc332146102425780633fabe74f1461025557806347f5546a1461026857600080fd5b806310fe9ae8146101ea578063122fd48a14610214578063305a67a814610225575b600080fd5b6004546001600160a01b03165b6040516001600160a01b0390911681526020015b60405180910390f35b6003546001600160a01b03166101f7565b610238610233366004613035565b610526565b005b610238610934565b610238610250366004613125565b610a61565b6102386102633660046131ec565b610f43565b610238610276366004613035565b611392565b6102a4610289366004613218565b6001600160a01b031660009081526006602052604090205490565b60405190815260200161020b565b6102386102c0366004613035565b61145c565b6101f76102d3366004613035565b600090815260076020819052604090912001546001600160a01b031690565b6102a4610300366004613035565b60009081526007602052604090206004015490565b610238611694565b61023861032b366004613035565b6116a6565b6102a461033e366004613035565b60009081526007602052604090206008015490565b6102a4610361366004613035565b611838565b6002546001600160a01b03166101f7565b6000546001600160a01b03166101f7565b610238610396366004613235565b611861565b6103ae6103a9366004613035565b611897565b60405161020b9190613292565b6101f76103c9366004613035565b6000908152600760205260409020600601546001600160a01b031690565b6102a46103f5366004613035565b60009081526007602052604090206005015490565b61041d610418366004613311565b61193c565b60405161020b919061337d565b6103ae610438366004613035565b611a09565b61046a61044b366004613035565b600090815260076020526040902060060154600160a01b900460ff1690565b60405161020b91906133eb565b61049a610485366004613035565b60086020526000908152604090205460ff1681565b60405161020b9190613409565b6103ae6104b5366004613035565b611a29565b6102386104c8366004613035565b611a46565b6102386104db366004613218565b611ba6565b6102a46104ee366004613218565b60096020526000908152604090205481565b61023861050e366004613417565b611c1c565b610238610521366004613035565b612283565b8060006007600083815260200190815260200160002060405180610140016040529081600082018054610558906134bb565b80601f0160208091040260200160405190810160405280929190818152602001828054610584906134bb565b80156105d15780601f106105a6576101008083540402835291602001916105d1565b820191906000526020600020905b8154815290600101906020018083116105b457829003601f168201915b505050505081526020016001820180546105ea906134bb565b80601f0160208091040260200160405190810160405280929190818152602001828054610616906134bb565b80156106635780601f1061063857610100808354040283529160200191610663565b820191906000526020600020905b81548152906001019060200180831161064657829003601f168201915b5050505050815260200160028201805461067c906134bb565b80601f01602080910402602001604051908101604052809291908181526020018280546106a8906134bb565b80156106f55780601f106106ca576101008083540402835291602001916106f5565b820191906000526020600020905b8154815290600101906020018083116106d857829003601f168201915b505050918352505060038201546020820152600482015460408201526005820154606082015260068201546001600160a01b038116608083015260a090910190600160a01b900460ff166002811115610750576107506133c1565b6002811115610761576107616133c1565b815260078201546001600160a01b0316602082015260089091015460409091015260608101519091506107af57604051634dabeae160e11b8152600481018390526024015b60405180910390fd5b6000838152600760205260409020600601546001600160a01b03163314806107e157506000546001600160a01b031633145b61082d5760405162461bcd60e51b815260206004820152601e60248201527f43616c6c6572206d7573742062652053656c6c6572206f72204f776e6572000060448201526064016107a6565b6003546040516337f7ac2160e01b8152600481018590526001600160a01b03909116906337f7ac2190602401600060405180830381600087803b15801561087357600080fd5b505af1158015610887573d6000803e3d6000fd5b505050600084815260076020526040812091506108a48282612fe7565b6108b2600183016000612fe7565b6108c0600283016000612fe7565b5060006003820181905560048201819055600582018190556006820180546001600160a81b03191690556007820180546001600160a01b03191690556008909101819055604051849133917ff86e54241e209ee4b38db8e64af9614b083d18f23c32f3293c8a87c6b8bf89439190a3505050565b61093c612492565b3360009081526006602052604090206109767f0000000000000000000000000000000000000000000000000000000000000000600a6135ef565b610982906101f46135fe565b815410156109a357604051638064fcfd60e01b815260040160405180910390fd5b33600081815260096020526040908190205460025491516340c10f1960e01b8152600481019390935260248301819052916001600160a01b03909116906340c10f1990604401600060405180830381600087803b158015610a0357600080fd5b505af1158015610a17573d6000803e3d6000fd5b505060008455505060405181815233907ffc30cddea38e2bf4d6ea7d3f9ed3b6ad7f176419f4963bd81318067a4aee73fe9060200160405180910390a25050610a5f60018055565b565b8480600003610a8357604051630579290160e31b815260040160405180910390fd5b600086118015610a935750600085115b610aea5760405162461bcd60e51b815260206004820152602260248201527f50726963652f5175616e74697479206d757374206265206d6f7265207468616e604482015261020360f41b60648201526084016107a6565b6000610af687876124eb565b6002546040516370a0823160e01b815233600482015291925082916001600160a01b03909116906370a0823190602401602060405180830381865afa158015610b43573d6000803e3d6000fd5b505050506040513d601f19601f82011682018060405250810190610b679190613615565b1015610b8657604051630135e64760e41b815260040160405180910390fd5b6002856002811115610b9a57610b9a6133c1565b03610d0b576001600160a01b03841615801590610bb75750600083115b610c035760405162461bcd60e51b815260206004820152601e60248201527f4d7573742070726f766964652076616c6964204e46542064657461696c73000060448201526064016107a6565b6040516331a9108f60e11b81526004810184905284906000906001600160a01b03831690636352211e90602401602060405180830381865afa158015610c4d573d6000803e3d6000fd5b505050506040513d601f19601f82011682018060405250810190610c71919061362e565b9050336001600160a01b03821614610c9c576040516317f23d5b60e31b815260040160405180910390fd5b600354604051632142170760e11b81523360048201526001600160a01b03918216602482015260448101879052908316906342842e0e90606401600060405180830381600087803b158015610cf057600080fd5b505af1158015610d04573d6000803e3d6000fd5b5050505050505b600a8110610d195780610d1c565b600a5b60025460405163079cc67960e41b8152336004820152602481018390529192506001600160a01b0316906379cc679090604401600060405180830381600087803b158015610d6957600080fd5b505af1158015610d7d573d6000803e3d6000fd5b5050505060006040518061014001604052808c81526020018b81526020018a8152602001898152602001888152602001838152602001336001600160a01b03168152602001876002811115610dd457610dd46133c1565b81526001600160a01b038716602082015260400185905290506000610df860055490565b6000818152600760205260409020835191925083918190610e199082613699565b5060208201516001820190610e2e9082613699565b5060408201516002820190610e439082613699565b50606082015160038201556080820151600482015560a0820151600582015560c08201516006820180546001600160a01b039092166001600160a01b031983168117825560e0850151926001600160a81b03191617600160a01b836002811115610eaf57610eaf6133c1565b02179055506101008201516007820180546001600160a01b0319166001600160a01b039092169190911790556101209091015160089091015560058054600101905580336001600160a01b03167f35972f089d362d12d6a7f0f84464489c3178177b41ab3ccd6063c66118d1eb9f8986604051610f2d929190613759565b60405180910390a3505050505050505050505050565b336001600160a01b037f00000000000000000000000000000000000000000000000000000000000000001614610f8c576040516328531bf560e11b815260040160405180910390fd5b8260018060008381526008602052604090205460ff166005811115610fb357610fb36133c1565b14610fd1576040516352aa501560e11b815260040160405180910390fd5b600354604051630528b1e360e31b815260048101879052602481018690526001600160a01b037f0000000000000000000000000000000000000000000000000000000000000000811660448301527f00000000000000000000000000000000000000000000000000000000000000006064830152909116906329458f1890608401600060405180830381600087803b15801561106c57600080fd5b505af1158015611080573d6000803e3d6000fd5b505060035460405163d09ef24160e01b8152600481018990526000935083925082918291829182916001600160a01b039091169063d09ef2419060240160c060405180830381865afa1580156110da573d6000803e3d6000fd5b505050506040513d601f19601f820116820180604052508101906110fe9190613774565b9550955095509550955095506002600860008d815260200190815260200160002060006101000a81548160ff02191690836005811115611140576111406133c1565b02179055506001600160a01b038516600090815260066020526040812080548c929061116d9084906137d2565b909155505060008481526007602052604090206006810154600190600160a01b900460ff1660028111156111a3576111a36133c1565b036111ad57600092505b60006111cc82600301548584600401546111c791906137d2565b6124eb565b905060006111ea828d8786600401546111e591906137d2565b61251e565b6001600160a01b0389166000908152600960205260408120805492935083929091906112179084906137d2565b9091555050600483015461122c9086906137d2565b6112368d846135fe565b61124091906137e5565b61124a9083613807565b60058401556001600088815260076020526040902060060154600160a01b900460ff16600281111561127e5761127e6133c1565b146112a4578b85846004015461129491906137d2565b61129e9190613807565b60048401555b600360009054906101000a90046001600160a01b03166001600160a01b031663cefdb8b68f8e8f87600301546112da91906135fe565b6040516001600160e01b031960e086901b16815260048101939093526024830191909152604482015260648101849052608401600060405180830381600087803b15801561132757600080fd5b505af115801561133b573d6000803e3d6000fd5b505050508d886001600160a01b03168a6001600160a01b03166000805160206138c68339815191528a8a8a8a600260405161137a95949392919061381a565b60405180910390a45050505050505050505050505050565b600061139d8261254d565b6003546004549192506113bf916001600160a01b03908116913391168561261b565b6002546040516340c10f1960e01b8152336004820152602481018390526001600160a01b03909116906340c10f1990604401600060405180830381600087803b15801561140b57600080fd5b505af115801561141f573d6000803e3d6000fd5b50506040518381523392507fa3a187cfc249a33f6c4046e8d418886eea8564f9dd214a32aa5ba08d9602b543915060200160405180910390a25050565b611464612492565b8060008060008381526008602052604090205460ff16600581111561148b5761148b6133c1565b146114a9576040516352aa501560e11b815260040160405180910390fd5b60035460405163d09ef24160e01b815260048101859052600091829182918291829182916001600160a01b039091169063d09ef2419060240160c060405180830381865afa1580156114ff573d6000803e3d6000fd5b505050506040513d601f19601f820116820180604052508101906115239190613774565b955095509550955095509550846001600160a01b0316336001600160a01b031614611561576040516324f7ca9f60e01b815260040160405180910390fd5b600354604051630af8ddff60e11b8152600481018b90526001600160a01b03909116906315f1bbfe90602401600060405180830381600087803b1580156115a757600080fd5b505af11580156115bb573d6000803e3d6000fd5b5050506000858152600760205260408120600481018054919350859290916115e49084906137d2565b9091555050600481015460058201546115fe9085906135fe565b61160891906137e5565b816005015461161791906137d2565b60058083019190915560008b8152600860205260409020805460ff1916600183021790555089866001600160a01b0316886001600160a01b03166000805160206138c683398151915288888888600560405161167795949392919061381a565b60405180910390a450505050505050505061169160018055565b50565b61169c61267b565b610a5f60006126d5565b8060038060008381526008602052604090205460ff1660058111156116cd576116cd6133c1565b146116eb576040516352aa501560e11b815260040160405180910390fd5b6116f3612492565b60035460405163d09ef24160e01b815260048101859052600091829182918291829182916001600160a01b039091169063d09ef2419060240160c060405180830381865afa158015611749573d6000803e3d6000fd5b505050506040513d601f19601f8201168201806040525081019061176d9190613774565b955095509550955095509550846001600160a01b0316336001600160a01b0316141580156117a45750336001600160a01b03871614155b156117c2576040516313836cf760e21b815260040160405180910390fd5b600089815260086020526040902080546001919060ff19168280021790555088856001600160a01b0316876001600160a01b03166000805160206138c683398151915287878787600160405161181c95949392919061381a565b60405180910390a450505050505061183360018055565b505050565b60008181526008602052604081205460ff16600581111561185b5761185b6133c1565b92915050565b61186961267b565b600280546001600160a01b039384166001600160a01b03199182161790915560038054929093169116179055565b60008181526007602052604090206001018054606091906118b7906134bb565b80601f01602080910402602001604051908101604052809291908181526020018280546118e3906134bb565b80156119305780601f1061190557610100808354040283529160200191611930565b820191906000526020600020905b81548152906001019060200180831161191357829003601f168201915b50505050509050919050565b6060611946612492565b838067ffffffffffffffff8111156119605761196061304e565b604051908082528060200260200182016040528015611989578160200160208202803683370190505b50915060005b818110156119f6576119d18787838181106119ac576119ac61384e565b905060200201358686848181106119c5576119c561384e565b90506020020135612725565b8382815181106119e3576119e361384e565b602090810291909101015260010161198f565b5050611a0160018055565b949350505050565b60008181526007602052604090206002018054606091906118b7906134bb565b60008181526007602052604090208054606091906118b7906134bb565b8060008060008381526008602052604090205460ff166005811115611a6d57611a6d6133c1565b14611a8b576040516352aa501560e11b815260040160405180910390fd5b611a93612492565b60035460405163d09ef24160e01b815260048101859052600091829182918291829182916001600160a01b039091169063d09ef2419060240160c060405180830381865afa158015611ae9573d6000803e3d6000fd5b505050506040513d601f19601f82011682018060405250810190611b0d9190613774565b955095509550955095509550856001600160a01b0316336001600160a01b031614611b4b57604051630ea76b7f60e11b815260040160405180910390fd5b600089815260086020526040902080546003919060ff1916600183021790555088856001600160a01b0316876001600160a01b03166000805160206138c683398151915287878787600360405161181c95949392919061381a565b611bae61267b565b6001600160a01b038116611c135760405162461bcd60e51b815260206004820152602660248201527f4f776e61626c653a206e6577206f776e657220697320746865207a65726f206160448201526564647265737360d01b60648201526084016107a6565b611691816126d5565b8560006007600083815260200190815260200160002060405180610140016040529081600082018054611c4e906134bb565b80601f0160208091040260200160405190810160405280929190818152602001828054611c7a906134bb565b8015611cc75780601f10611c9c57610100808354040283529160200191611cc7565b820191906000526020600020905b815481529060010190602001808311611caa57829003601f168201915b50505050508152602001600182018054611ce0906134bb565b80601f0160208091040260200160405190810160405280929190818152602001828054611d0c906134bb565b8015611d595780601f10611d2e57610100808354040283529160200191611d59565b820191906000526020600020905b815481529060010190602001808311611d3c57829003601f168201915b50505050508152602001600282018054611d72906134bb565b80601f0160208091040260200160405190810160405280929190818152602001828054611d9e906134bb565b8015611deb5780601f10611dc057610100808354040283529160200191611deb565b820191906000526020600020905b815481529060010190602001808311611dce57829003601f168201915b505050918352505060038201546020820152600482015460408201526005820154606082015260068201546001600160a01b038116608083015260a090910190600160a01b900460ff166002811115611e4657611e466133c1565b6002811115611e5757611e576133c1565b815260078201546001600160a01b031660208201526008909101546040909101526060810151909150611ea057604051634dabeae160e11b8152600481018390526024016107a6565b6000888152600760205260409020600601546001600160a01b03163314611f015760405162461bcd60e51b815260206004820152601560248201527421b0b63632b91036bab9ba1031329029b2b63632b960591b60448201526064016107a6565b600088815260076020526040902060030154611f1f906002906137e5565b8411611f875760405162461bcd60e51b815260206004820152603160248201527f4e6577207072696365206d757374206265206d6f7265207468616e2068616c66604482015270206f6620746865206f6c6420707269636560781b60648201526084016107a6565b60008881526007602052604081206005015490611fa486866124eb565b9050600a8110611fb45780611fb7565b600a5b905081811115612040576002546001600160a01b03166379cc679033611fdd8585613807565b6040516001600160e01b031960e085901b1681526001600160a01b0390921660048301526024820152604401600060405180830381600087803b15801561202357600080fd5b505af1158015612037573d6000803e3d6000fd5b505050506120bb565b6002546001600160a01b03166340c10f193361205c8486613807565b6040516001600160e01b031960e085901b1681526001600160a01b0390921660048301526024820152604401600060405180830381600087803b1580156120a257600080fd5b505af11580156120b6573d6000803e3d6000fd5b505050505b6040518061014001604052808a8152602001898152602001888152602001878152602001868152602001828152602001336001600160a01b03168152602001600760008d815260200190815260200160002060060160149054906101000a900460ff16600281111561212f5761212f6133c1565b815260008c8152600760208181526040808420808401546001600160a01b03168387015260088101549190950152918e90529052815181906121719082613699565b50602082015160018201906121869082613699565b506040820151600282019061219b9082613699565b50606082015160038201556080820151600482015560a0820151600582015560c08201516006820180546001600160a01b039092166001600160a01b031983168117825560e0850151926001600160a81b03191617600160a01b836002811115612207576122076133c1565b02179055506101008201516007820180546001600160a01b0319166001600160a01b03909216919091179055610120909101516008909101556040518181528a9033907f82b734916fc1640bd27e4a74f59b25fbe50fa55fa747b397b21f069067923a269060200160405180910390a350505050505050505050565b8060038060008381526008602052604090205460ff1660058111156122aa576122aa6133c1565b146122c8576040516352aa501560e11b815260040160405180910390fd5b6122d0612492565b60035460405163d09ef24160e01b815260048101859052600091829182918291829182916001600160a01b039091169063d09ef2419060240160c060405180830381865afa158015612326573d6000803e3d6000fd5b505050506040513d601f19601f8201168201806040525081019061234a9190613774565b955095509550955095509550846001600160a01b0316336001600160a01b031614612388576040516324f7ca9f60e01b815260040160405180910390fd5b600354604051634d68282f60e01b8152600481018b90526001600160a01b0390911690634d68282f90602401600060405180830381600087803b1580156123ce57600080fd5b505af11580156123e2573d6000803e3d6000fd5b505050506001600160a01b0385166000908152600660205260408120805485929061240e9084906137d2565b909155505033600090815260096020526040812080548392906124329084906137d2565b9091555050600089815260086020526040902080546004919060ff1916600183021790555088856001600160a01b0316876001600160a01b03166000805160206138c683398151915287878787600460405161181c95949392919061381a565b6002600154036124e45760405162461bcd60e51b815260206004820152601f60248201527f5265656e7472616e637947756172643a207265656e7472616e742063616c6c0060448201526064016107a6565b6002600155565b60006125176064836124fe86600a6135fe565b61250891906135fe565b61251291906137e5565b61254d565b9392505050565b6000606460468361252f86886135fe565b61253991906137e5565b61254391906135fe565b611a0191906137e5565b600061257a7f0000000000000000000000000000000000000000000000000000000000000000600a6135ef565b600260009054906101000a90046001600160a01b03166001600160a01b031663313ce5676040518163ffffffff1660e01b8152600401602060405180830381865afa1580156125cd573d6000803e3d6000fd5b505050506040513d601f19601f820116820180604052508101906125f19190613864565b6125fc90600a6135ef565b612607600a856135fe565b61261191906135fe565b61185b91906137e5565b604080516001600160a01b0385811660248301528416604482015260648082018490528251808303909101815260849091019091526020810180516001600160e01b03166323b872dd60e01b179052612675908590612dff565b50505050565b6000546001600160a01b03163314610a5f5760405162461bcd60e51b815260206004820181905260248201527f4f776e61626c653a2063616c6c6572206973206e6f7420746865206f776e657260448201526064016107a6565b600080546001600160a01b038381166001600160a01b0319831681178455604051919092169283917f8be0079c531659141344cd1fd0a4f28419497f9722a3daafe3b4186f6b6457e09190a35050565b60008260006007600083815260200190815260200160002060405180610140016040529081600082018054612759906134bb565b80601f0160208091040260200160405190810160405280929190818152602001828054612785906134bb565b80156127d25780601f106127a7576101008083540402835291602001916127d2565b820191906000526020600020905b8154815290600101906020018083116127b557829003601f168201915b505050505081526020016001820180546127eb906134bb565b80601f0160208091040260200160405190810160405280929190818152602001828054612817906134bb565b80156128645780601f1061283957610100808354040283529160200191612864565b820191906000526020600020905b81548152906001019060200180831161284757829003601f168201915b5050505050815260200160028201805461287d906134bb565b80601f01602080910402602001604051908101604052809291908181526020018280546128a9906134bb565b80156128f65780601f106128cb576101008083540402835291602001916128f6565b820191906000526020600020905b8154815290600101906020018083116128d957829003601f168201915b505050918352505060038201546020820152600482015460408201526005820154606082015260068201546001600160a01b038116608083015260a090910190600160a01b900460ff166002811115612951576129516133c1565b6002811115612962576129626133c1565b815260078201546001600160a01b0316602082015260089091015460409091015260608101519091506129ab57604051634dabeae160e11b8152600481018390526024016107a6565b600085815260076020526040812060048101549091906129cc908790613807565b10156129eb57604051636c61f77160e01b815260040160405180910390fd5b8481600301546129fb91906135fe565b600480546040516370a0823160e01b815233928101929092526001600160a01b0316906370a0823190602401602060405180830381865afa158015612a44573d6000803e3d6000fd5b505050506040513d601f19601f82011682018060405250810190612a689190613615565b1015612a8757604051634e14ee3160e01b815260040160405180910390fd5b6000612a9c826005015487846004015461251e565b90508160040154868360050154612ab391906135fe565b612abd91906137e5565b8260050154612acc9190613807565b60058301556001600088815260076020526040902060060154600160a01b900460ff166002811115612b0057612b006133c1565b14612b1f5785826004016000828254612b199190613807565b90915550505b600380546006840154918401546000926001600160a01b039283169263a645c3bc9291169033908c90612b53908d906135fe565b6040516001600160e01b031960e087901b1681526001600160a01b03948516600482015293909216602484015260448301526064820152608481018a905260a4810185905260c4016020604051808303816000875af1158015612bba573d6000803e3d6000fd5b505050506040513d601f19601f82011682018060405250810190612bde9190613615565b90506000808281526008602052604090205460ff166005811115612c0457612c046133c1565b50506006830154600584015460405190815289916001600160a01b0316907f82b734916fc1640bd27e4a74f59b25fbe50fa55fa747b397b21f069067923a269060200160405180910390a360068301546003840154829133916001600160a01b03909116906000805160206138c6833981519152908c90612c86908d906135fe565b60008781526008602052604090819020549051612cac9392918f918b9160ff169061381a565b60405180910390a460026006840154600160a01b900460ff166002811115612cd657612cd66133c1565b03612df457600354604051634d68282f60e01b8152600481018390526001600160a01b0390911690634d68282f90602401600060405180830381600087803b158015612d2157600080fd5b505af1158015612d35573d6000803e3d6000fd5b5050506000828152600860209081526040808320805460ff19166004179055338352600990915281208054859350909190612d719084906137d2565b909155505060038301543360009081526006602052604081208054909190612d9a9084906137d2565b909155505060068301546003840154829133916001600160a01b03909116906000805160206138c6833981519152908c90612dd6908d906135fe565b8c886004604051612deb95949392919061381a565b60405180910390a45b979650505050505050565b6000612e54826040518060400160405280602081526020017f5361666545524332303a206c6f772d6c6576656c2063616c6c206661696c6564815250856001600160a01b0316612ed49092919063ffffffff16565b9050805160001480612e75575080806020019051810190612e759190613887565b6118335760405162461bcd60e51b815260206004820152602a60248201527f5361666545524332303a204552433230206f7065726174696f6e20646964206e6044820152691bdd081cdd58d8d9595960b21b60648201526084016107a6565b6060611a01848460008585600080866001600160a01b03168587604051612efb91906138a9565b60006040518083038185875af1925050503d8060008114612f38576040519150601f19603f3d011682016040523d82523d6000602084013e612f3d565b606091505b5091509150612df48783838760608315612fb8578251600003612fb1576001600160a01b0385163b612fb15760405162461bcd60e51b815260206004820152601d60248201527f416464726573733a2063616c6c20746f206e6f6e2d636f6e747261637400000060448201526064016107a6565b5081611a01565b611a018383815115612fcd5781518083602001fd5b8060405162461bcd60e51b81526004016107a69190613292565b508054612ff3906134bb565b6000825580601f10613003575050565b601f01602090049060005260206000209081019061169191905b80821115613031576000815560010161301d565b5090565b60006020828403121561304757600080fd5b5035919050565b634e487b7160e01b600052604160045260246000fd5b600082601f83011261307557600080fd5b813567ffffffffffffffff808211156130905761309061304e565b604051601f8301601f19908116603f011681019082821181831017156130b8576130b861304e565b816040528381528660208588010111156130d157600080fd5b836020870160208301376000602085830101528094505050505092915050565b80356003811061310057600080fd5b919050565b6001600160a01b038116811461169157600080fd5b803561310081613105565b600080600080600080600080610100898b03121561314257600080fd5b883567ffffffffffffffff8082111561315a57600080fd5b6131668c838d01613064565b995060208b013591508082111561317c57600080fd5b6131888c838d01613064565b985060408b013591508082111561319e57600080fd5b506131ab8b828c01613064565b96505060608901359450608089013593506131c860a08a016130f1565b92506131d660c08a0161311a565b915060e089013590509295985092959890939650565b60008060006060848603121561320157600080fd5b505081359360208301359350604090920135919050565b60006020828403121561322a57600080fd5b813561251781613105565b6000806040838503121561324857600080fd5b823561325381613105565b9150602083013561326381613105565b809150509250929050565b60005b83811015613289578181015183820152602001613271565b50506000910152565b60208152600082518060208401526132b181604085016020870161326e565b601f01601f19169190910160400192915050565b60008083601f8401126132d757600080fd5b50813567ffffffffffffffff8111156132ef57600080fd5b6020830191508360208260051b850101111561330a57600080fd5b9250929050565b6000806000806040858703121561332757600080fd5b843567ffffffffffffffff8082111561333f57600080fd5b61334b888389016132c5565b9096509450602087013591508082111561336457600080fd5b50613371878288016132c5565b95989497509550505050565b6020808252825182820181905260009190848201906040850190845b818110156133b557835183529284019291840191600101613399565b50909695505050505050565b634e487b7160e01b600052602160045260246000fd5b600381106133e7576133e76133c1565b9052565b6020810161185b82846133d7565b600681106133e7576133e76133c1565b6020810161185b82846133f9565b60008060008060008060c0878903121561343057600080fd5b86359550602087013567ffffffffffffffff8082111561344f57600080fd5b61345b8a838b01613064565b9650604089013591508082111561347157600080fd5b61347d8a838b01613064565b9550606089013591508082111561349357600080fd5b506134a089828a01613064565b9350506080870135915060a087013590509295509295509295565b600181811c908216806134cf57607f821691505b6020821081036134ef57634e487b7160e01b600052602260045260246000fd5b50919050565b634e487b7160e01b600052601160045260246000fd5b600181815b8085111561354657816000190482111561352c5761352c6134f5565b8085161561353957918102915b93841c9390800290613510565b509250929050565b60008261355d5750600161185b565b8161356a5750600061185b565b8160018114613580576002811461358a576135a6565b600191505061185b565b60ff84111561359b5761359b6134f5565b50506001821b61185b565b5060208310610133831016604e8410600b84101617156135c9575081810a61185b565b6135d3838361350b565b80600019048211156135e7576135e76134f5565b029392505050565b600061251760ff84168361354e565b808202811582820484141761185b5761185b6134f5565b60006020828403121561362757600080fd5b5051919050565b60006020828403121561364057600080fd5b815161251781613105565b601f82111561183357600081815260208120601f850160051c810160208610156136725750805b601f850160051c820191505b818110156136915782815560010161367e565b505050505050565b815167ffffffffffffffff8111156136b3576136b361304e565b6136c7816136c184546134bb565b8461364b565b602080601f8311600181146136fc57600084156136e45750858301515b600019600386901b1c1916600185901b178555613691565b600085815260208120601f198616915b8281101561372b5788860151825594840194600190910190840161370c565b50858210156137495787850151600019600388901b60f8161c191681555b5050505050600190811b01905550565b6040810161376782856133d7565b8260208301529392505050565b60008060008060008060c0878903121561378d57600080fd5b865161379881613105565b60208801519096506137a981613105565b6040880151606089015160808a015160a0909a0151989b929a5090989097909650945092505050565b8082018082111561185b5761185b6134f5565b60008261380257634e487b7160e01b600052601260045260246000fd5b500490565b8181038181111561185b5761185b6134f5565b600060a08201905086825285602083015284604083015283606083015261384460808301846133f9565b9695505050505050565b634e487b7160e01b600052603260045260246000fd5b60006020828403121561387657600080fd5b815160ff8116811461251757600080fd5b60006020828403121561389957600080fd5b8151801515811461251757600080fd5b600082516138bb81846020870161326e565b919091019291505056fe2e5ac348688d81c901d4799aff57a8f7bc8366578843f4c8cac1ecca6e43f227a264697066735822122033e3ce57a80b0b851a13b7bf2760451ce9eb9f6d913e8605b973438f47162f4f64736f6c63430008150033",
    "linkReferences": {}
  },
  "methodIdentifiers": {
    "activate(address,address)": "9555c4db",
    "buyTOM(uint256)": "47f5546a",
    "cancelListing(uint256)": "305a67a8",
    "cancelOrder(uint256)": "514fcac7",
    "claimRewards()": "372500ab",
    "confirmDelivery(uint256)": "fd84cb97",
    "deliverySent(uint256)": "dad0932b",
    "getEscrowAddress()": "122fd48a",
    "getItemDescription(uint256)": "c02619c4",
    "getItemImage(uint256)": "a225833c",
    "getItemName(uint256)": "d9561a91",
    "getItemNftAddress(uint256)": "6bd807d1",
    "getItemNftId(uint256)": "7b3fb20f",
    "getItemPostingFee(uint256)": "ab0c0c6a",
    "getItemQuantity(uint256)": "6f5528c0",
    "getItemSeller(uint256)": "a917f66f",
    "getItemType(uint256)": "c19a4ef5",
    "getOrderState(uint256)": "810bd6af",
    "getSpentAmount(address)": "4e10efbd",
    "getTokenAddress()": "10fe9ae8",
    "getTomAddress()": "86664124",
    "initiateDispute(uint256)": "71635c03",
    "listItem(string,string,string,uint256,uint256,uint8,address,uint256)": "399bc332",
    "orderCart(uint256[],uint256[])": "bafc47db",
    "orderStates(uint256)": "c465a859",
    "owner()": "8da5cb5b",
    "renounceOwnership()": "715018a6",
    "resolveDispute(uint256,uint256,uint256)": "3fabe74f",
    "transferOwnership(address)": "f2fde38b",
    "updateItem(uint256,string,string,string,uint256,uint256)": "f75b59f4",
    "userTotalRewards(address)": "f6a3f3cf"
  },
  "id": 41
}