{
  "abi": [
    {
      "inputs": [
        {
          "internalType": "address",
          "name": "_marketplace",
          "type": "address"
        }
      ],
      "stateMutability": "nonpayable",
      "type": "constructor"
    },
    {
      "inputs": [],
      "name": "Escrow__OnlyMarketplace",
      "type": "error"
    },
    {
      "inputs": [
        {
          "internalType": "uint256",
          "name": "orderId",
          "type": "uint256"
        },
        {
          "internalType": "uint256",
          "name": "fee",
          "type": "uint256"
        }
      ],
      "name": "Escrow__TotalFeeExceedsBalance",
      "type": "error"
    },
    {
      "inputs": [
        {
          "internalType": "uint256",
          "name": "itemId",
          "type": "uint256"
        }
      ],
      "name": "cancelNftListing",
      "outputs": [],
      "stateMutability": "nonpayable",
      "type": "function"
    },
    {
      "inputs": [
        {
          "internalType": "uint256",
          "name": "orderId",
          "type": "uint256"
        }
      ],
      "name": "getOrder",
      "outputs": [
        {
          "internalType": "address",
          "name": "",
          "type": "address"
        },
        {
          "internalType": "address",
          "name": "",
          "type": "address"
        },
        {
          "internalType": "uint256",
          "name": "",
          "type": "uint256"
        },
        {
          "internalType": "uint256",
          "name": "",
          "type": "uint256"
        },
        {
          "internalType": "uint256",
          "name": "",
          "type": "uint256"
        },
        {
          "internalType": "uint256",
          "name": "",
          "type": "uint256"
        }
      ],
      "stateMutability": "view",
      "type": "function"
    },
    {
      "inputs": [
        {
          "internalType": "address",
          "name": "seller",
          "type": "address"
        },
        {
          "internalType": "address",
          "name": "buyer",
          "type": "address"
        },
        {
          "internalType": "uint256",
          "name": "itemId",
          "type": "uint256"
        },
        {
          "internalType": "uint256",
          "name": "price",
          "type": "uint256"
        },
        {
          "internalType": "uint256",
          "name": "quantity",
          "type": "uint256"
        },
        {
          "internalType": "uint256",
          "name": "rewards",
          "type": "uint256"
        }
      ],
      "name": "lockFunds",
      "outputs": [
        {
          "internalType": "uint256",
          "name": "",
          "type": "uint256"
        }
      ],
      "stateMutability": "nonpayable",
      "type": "function"
    },
    {
      "inputs": [
        {
          "internalType": "address",
          "name": "",
          "type": "address"
        },
        {
          "internalType": "address",
          "name": "",
          "type": "address"
        },
        {
          "internalType": "uint256",
          "name": "",
          "type": "uint256"
        },
        {
          "internalType": "bytes",
          "name": "",
          "type": "bytes"
        }
      ],
      "name": "onERC721Received",
      "outputs": [
        {
          "internalType": "bytes4",
          "name": "",
          "type": "bytes4"
        }
      ],
      "stateMutability": "pure",
      "type": "function"
    },
    {
      "inputs": [
        {
          "internalType": "uint256",
          "name": "orderId",
          "type": "uint256"
        }
      ],
      "name": "refundFunds",
      "outputs": [],
      "stateMutability": "nonpayable",
      "type": "function"
    },
    {
      "inputs": [
        {
          "internalType": "uint256",
          "name": "orderId",
          "type": "uint256"
        }
      ],
      "name": "releaseFunds",
      "outputs": [],
      "stateMutability": "nonpayable",
      "type": "function"
    },
    {
      "inputs": [
        {
          "internalType": "uint256",
          "name": "_orderId",
          "type": "uint256"
        },
        {
          "internalType": "uint256",
          "name": "_buyerAward",
          "type": "uint256"
        },
        {
          "internalType": "address",
          "name": "_arbiter",
          "type": "address"
        },
        {
          "internalType": "uint256",
          "name": "_arbiterFee",
          "type": "uint256"
        }
      ],
      "name": "resolveDispute",
      "outputs": [],
      "stateMutability": "nonpayable",
      "type": "function"
    },
    {
      "inputs": [
        {
          "internalType": "uint256",
          "name": "orderId",
          "type": "uint256"
        },
        {
          "internalType": "uint256",
          "name": "quantityPurshased",
          "type": "uint256"
        },
        {
          "internalType": "uint256",
          "name": "itemPrice",
          "type": "uint256"
        },
        {
          "internalType": "uint256",
          "name": "newReward",
          "type": "uint256"
        }
      ],
      "name": "updateOrder",
      "outputs": [],
      "stateMutability": "nonpayable",
      "type": "function"
    }
  ],
  "bytecode": {
    "object": "0x608060405234801561001057600080fd5b5060405161114238038061114283398101604081905261002f916100d2565b600280546001600160a01b0319166001600160a01b0383169081179091556040805163021fd35d60e31b815290516310fe9ae8916004808201926020929091908290030181865afa158015610088573d6000803e3d6000fd5b505050506040513d601f19601f820116820180604052508101906100ac91906100d2565b600080546001600160a01b0319166001600160a01b039290921691909117905550610102565b6000602082840312156100e457600080fd5b81516001600160a01b03811681146100fb57600080fd5b9392505050565b611031806101116000396000f3fe608060405234801561001057600080fd5b50600436106100885760003560e01c80634d68282f1161005b5780634d68282f14610105578063a645c3bc14610118578063cefdb8b614610139578063d09ef2411461014c57600080fd5b8063150b7a021461008d57806315f1bbfe146100ca57806329458f18146100df57806337f7ac21146100f2575b600080fd5b6100ac61009b366004610d17565b630a85bd0160e11b95945050505050565b6040516001600160e01b031990911681526020015b60405180910390f35b6100dd6100d8366004610db6565b610197565b005b6100dd6100ed366004610dcf565b6101fa565b6100dd610100366004610db6565b6102fb565b6100dd610113366004610db6565b6104ee565b61012b610126366004610e0e565b610767565b6040519081526020016100c1565b6100dd610147366004610e67565b6108bb565b61015f61015a366004610db6565b6109c4565b604080516001600160a01b039788168152969095166020870152938501929092526060840152608083015260a082015260c0016100c1565b6002546001600160a01b031633146101c25760405163878a1fe360e01b815260040160405180910390fd5b60008181526001602081905260408220908101546003820154925491926101f6926001600160a01b03908116921690610a09565b5050565b6002546001600160a01b031633146102255760405163878a1fe360e01b815260040160405180910390fd5b60008481526001602052604081209061023e8386610eaf565b9050816003015481111561027a576003820154604051633f0219c760e11b81526004810191909152602481018290526044015b60405180910390fd5b841561029f57600182015460005461029f916001600160a01b03918216911687610a09565b82156102bc576000546102bc906001600160a01b03168585610a09565b60008183600301546102ce9190610ec8565b905080156102f25782546000546102f2916001600160a01b03918216911683610a09565b50505050505050565b6002546001600160a01b031633146103265760405163878a1fe360e01b815260040160405180910390fd5b600254604051636bd807d160e01b8152600481018390526000916001600160a01b031690636bd807d190602401602060405180830381865afa158015610370573d6000803e3d6000fd5b505050506040513d601f19601f820116820180604052508101906103949190610edb565b600254604051637b3fb20f60e01b8152600481018590529192506000916001600160a01b0390911690637b3fb20f90602401602060405180830381865afa1580156103e3573d6000803e3d6000fd5b505050506040513d601f19601f820116820180604052508101906104079190610eff565b60025460405163a917f66f60e01b8152600481018690529192506000916001600160a01b039091169063a917f66f90602401602060405180830381865afa158015610456573d6000803e3d6000fd5b505050506040513d601f19601f8201168201806040525081019061047a9190610edb565b604051632142170760e11b81523060048201526001600160a01b0380831660248301526044820185905291925084918216906342842e0e90606401600060405180830381600087803b1580156104cf57600080fd5b505af11580156104e3573d6000803e3d6000fd5b505050505050505050565b6002546001600160a01b031633146105195760405163878a1fe360e01b815260040160405180910390fd5b6002805460008381526001602052604080822090930154925163c19a4ef560e01b81526004810193909352916001600160a01b039091169063c19a4ef590602401602060405180830381865afa158015610577573d6000803e3d6000fd5b505050506040513d601f19601f8201168201806040525081019061059b9190610f18565b600083815260016020526040902090915060028260028111156105c0576105c0610f39565b036107405760028054600085815260016020526040808220909301549251636bd807d160e01b81526004810193909352916001600160a01b0390911690636bd807d190602401602060405180830381865afa158015610623573d6000803e3d6000fd5b505050506040513d601f19601f820116820180604052508101906106479190610edb565b60028054600087815260016020526040808220909301549251637b3fb20f60e01b815260048101939093529293506001600160a01b031690637b3fb20f90602401602060405180830381865afa1580156106a5573d6000803e3d6000fd5b505050506040513d601f19601f820116820180604052508101906106c99190610eff565b6001840154604051632142170760e11b81523060048201526001600160a01b039182166024820152604481018390529192508391908216906342842e0e90606401600060405180830381600087803b15801561072457600080fd5b505af1158015610738573d6000803e3d6000fd5b505050505050505b80546003820154600054610762926001600160a01b0391821692911690610a09565b505050565b6002546000906001600160a01b031633146107955760405163878a1fe360e01b815260040160405180910390fd5b6003546040516bffffffffffffffffffffffff1933606090811b821660208401528a901b16603482015242604882015260688101879052608881019190915260009060a8016040516020818303038152906040528051906020012060001c90506001600360008282546108089190610eaf565b90915550506040805160c0810182526001600160a01b03808b16825289811660208084019182528385018b8152606085018b8152608086018b815260a087018b815260008a8152600195869052988920975188549088166001600160a01b031991821617895595519488018054958816959096169490941790945590516002860155516003850155905160048401555160059092019190915590546108b09116883088610a6c565b979650505050505050565b6002546001600160a01b031633146108e65760405163878a1fe360e01b815260040160405180910390fd5b6000806000806000806108f88a6109c4565b9550955095509550955095506040518060c00160405280876001600160a01b03168152602001866001600160a01b031681526020018581526020018a8a61093f9190610f4f565b815260208082019b909b5260409081019890985260009a8b526001808b529a889020815181546001600160a01b03199081166001600160a01b039283161783559b8301519c82018054909c169c169b909b1790995550505050918401516002860155505050606081015160038301556080810151600483015560a00151600590910155565b60009081526001602081905260409091208054918101546002820154600383015460048401546005909401546001600160a01b03958616969590931694919390929091565b6040516001600160a01b03831660248201526044810182905261076290849063a9059cbb60e01b906064015b60408051601f198184030181529190526020810180516001600160e01b03166001600160e01b031990931692909217909152610aaa565b6040516001600160a01b0380851660248301528316604482015260648101829052610aa49085906323b872dd60e01b90608401610a35565b50505050565b6000610aff826040518060400160405280602081526020017f5361666545524332303a206c6f772d6c6576656c2063616c6c206661696c6564815250856001600160a01b0316610b7f9092919063ffffffff16565b9050805160001480610b20575080806020019051810190610b209190610f66565b6107625760405162461bcd60e51b815260206004820152602a60248201527f5361666545524332303a204552433230206f7065726174696f6e20646964206e6044820152691bdd081cdd58d8d9595960b21b6064820152608401610271565b6060610b8e8484600085610b96565b949350505050565b606082471015610bf75760405162461bcd60e51b815260206004820152602660248201527f416464726573733a20696e73756666696369656e742062616c616e636520666f6044820152651c8818d85b1b60d21b6064820152608401610271565b600080866001600160a01b03168587604051610c139190610fac565b60006040518083038185875af1925050503d8060008114610c50576040519150601f19603f3d011682016040523d82523d6000602084013e610c55565b606091505b50915091506108b08783838760608315610cd0578251600003610cc9576001600160a01b0385163b610cc95760405162461bcd60e51b815260206004820152601d60248201527f416464726573733a2063616c6c20746f206e6f6e2d636f6e74726163740000006044820152606401610271565b5081610b8e565b610b8e8383815115610ce55781518083602001fd5b8060405162461bcd60e51b81526004016102719190610fc8565b6001600160a01b0381168114610d1457600080fd5b50565b600080600080600060808688031215610d2f57600080fd5b8535610d3a81610cff565b94506020860135610d4a81610cff565b935060408601359250606086013567ffffffffffffffff80821115610d6e57600080fd5b818801915088601f830112610d8257600080fd5b813581811115610d9157600080fd5b896020828501011115610da357600080fd5b9699959850939650602001949392505050565b600060208284031215610dc857600080fd5b5035919050565b60008060008060808587031215610de557600080fd5b84359350602085013592506040850135610dfe81610cff565b9396929550929360600135925050565b60008060008060008060c08789031215610e2757600080fd5b8635610e3281610cff565b95506020870135610e4281610cff565b95989597505050506040840135936060810135936080820135935060a0909101359150565b60008060008060808587031215610e7d57600080fd5b5050823594602084013594506040840135936060013592509050565b634e487b7160e01b600052601160045260246000fd5b80820180821115610ec257610ec2610e99565b92915050565b81810381811115610ec257610ec2610e99565b600060208284031215610eed57600080fd5b8151610ef881610cff565b9392505050565b600060208284031215610f1157600080fd5b5051919050565b600060208284031215610f2a57600080fd5b815160038110610ef857600080fd5b634e487b7160e01b600052602160045260246000fd5b8082028115828204841417610ec257610ec2610e99565b600060208284031215610f7857600080fd5b81518015158114610ef857600080fd5b60005b83811015610fa3578181015183820152602001610f8b565b50506000910152565b60008251610fbe818460208701610f88565b9190910192915050565b6020815260008251806020840152610fe7816040850160208701610f88565b601f01601f1916919091016040019291505056fea264697066735822122019ec2a3ada6d9b197cdb9816ff9acf54e0356f521680ed8397cdae78d761a84964736f6c63430008150033",
    "linkReferences": {}
  },
  "methodIdentifiers": {
    "cancelNftListing(uint256)": "37f7ac21",
    "getOrder(uint256)": "d09ef241",
    "lockFunds(address,address,uint256,uint256,uint256,uint256)": "a645c3bc",
    "onERC721Received(address,address,uint256,bytes)": "150b7a02",
    "refundFunds(uint256)": "15f1bbfe",
    "releaseFunds(uint256)": "4d68282f",
    "resolveDispute(uint256,uint256,address,uint256)": "29458f18",
    "updateOrder(uint256,uint256,uint256,uint256)": "cefdb8b6"
  },
  "id": 40
}